S01E00004F62737461636C652061766F6964616E6365206361722E73726563B9
S11300000C942A000C9447000C9447000C9447006D
S11300100C9447000C9447000C9447000C94470040
S11300200C9447000C9447000C9447000C94470030
S11300300C9447000C9447000C9447000C94470020
S11300400C9447000C9447000C9447000C94470010
S11300500C94470011241FBECFE5D8E0DEBFCDBF0E
S113006010E0A0E6B0E0E4E6F3E102C005900D92F2
S1130070A03EB107D9F720E0A0EEB0E001C01D9288
S1130080A63EB207E1F70E9423050C94B0090C9434
S113009000000F931F93CF93DF931F92CDB7DEB76A
S11300A000E010E007C062E070E0C8010E94CD03E8
S11300B00F5F1F4F08301105B4F319820E94A00688
S11300C061E081E00E9485040E948F020E94A601E3
S11300D062E370E080E090E00E94C7060E9494040E
S11300E085E790E00E9417030E94E3018133E1F762
S11300F060E080E00E942A0386E890E00E941703F3
S113010060E081E00E942A0388E990E00E941703DE
S113011010E036C0AE014F5F5F4F61E081E00E94A6
S11301208D0489818130A1F480916100803911F4BA
S113013080E601C080E98093610007C0AE014F5F93
S11301405F4F61E081E00E948D0489818130B1F3C9
S113015062E370E080E090E00E94C70660E081E026
S11301600E942A0380916100803929F48EE990E08D
S11301700E94170304C088E990E00E9417031F5FE0
S11301801C3340F281E00E9446020F90DF91CF9130
S11301901F910F910895CF93DF931F92CDB7DEB7D0
S11301A0CE0101960E94A1040E94E301823329F545
S11301B01092E10062E070E083E090E00E94E403CA
S11301C081E00E94460260E080E00E942A036AE027
S11301D070E080E090E00E94C70684EA90E00E940C
S11301E0170364E081E00E942A0380EB90E00E9400
S11301F017030E94E3018133E1F789818634C0F05B
S11302008091E100813268F49EE19093E0008F5F79
S11302108093E1006AE070E080E090E00E94C7060D
S113022003C082E38093E00080E58093600025C0F2
S11302308E3148F01092E1008EE18093E00080E579
S1130240809360001AC0843180F01092E10062E073
S113025070E08FEF90E00E94E4038EE18093E00071
S1130260809161008093600008C01092E1008EE1EB
S11302708093E00080EA8093600062E070E08FEF9A
S113028090E00E94E4038091600062E070E090E0FE
S11302900E94DF034091E00050E062E070E083E000
S11302A090E00E94E903CE0101960E94A10460E05F
S11302B080E00E942A036AE070E080E090E00E94FF
S11302C0C70688EB90E00E9417036091E00070E09D
S11302D080E090E00E94420380EC90E00E941703CB
S11302E080916000803699F018F4803531F018C0A0
S11302F0803991F0803A31F013C087EC90E00E948D
S113030017030EC089EC90E00E94170309C08BEC20
S113031090E00E94170304C08DEC90E00E94170344
S113032060E081E00E942A038FEC90E00E941703B2
S1130330698170E080E090E00E94420389ED90E0E2
S11303400E9417030F90DF91CF91089541E065E07B
S113035081E00E94280541E066E081E00E942805D2
S113036041E067E081E00E94280540E062E081E02E
S11303700E94280540E063E081E00E94280540E0F7
S113038064E081E00E94280541E065E081E00E948C
S1130390A70541E066E081E00E94A70541E067E02F
S11303A081E00E94A70541E062E081E00E94A70588
S11303B041E063E081E00E94A70541E064E081E060
S11303C00E94A7050895CF92DF92EF92FF920F93B8
S11303D01F93CF93DF931F92CDB7DEB710E00AC00F
S11303E0E12FF0E0E259FF4F41E0608181E00E949B
S11303F0A7051F5F1330A0F300E03BC0C02ED12C33
S1130400F601E259FF4F40E0608181E00E94A705B8
S113041010E024C0E12EF12CF701E559FF4FAE01A5
S11304204F5F5F4F608181E00E94260699819111A0
S113043014C0F701E559FF4F41E0608181E00E945B
S1130440A705C701880F991F8E0D9F1D8E599F4FB9
S1130450FC01EC0DFD1D80810FC01F5F1330D0F235
S1130460F601E259FF4F41E0608181E00E94A70557
S11304700F5F033018F280E00F90DF91CF911F914E
S11304800F91FF90EF90DF90CF900895CF93C82FF6
S11304900E94A00640E061E080E00E94A70540E0E1
S11304A062E080E00E94A70540E063E080E00E94F3
S11304B0A7058BB39C2F907F8F70892B8BBB41E05A
S11304C063E080E00E94A70561E070E080E090E0D6
S11304D00E94C70640E063E080E00E94A70520E197
S11304E0C29FC00111249BB39F70892B8BBB41E039
S11304F063E080E00E94A70561E070E080E090E0A6
S11305000E94C70640E063E080E00E94A70565E022
S113051070E080E090E00E94C706CF9108950E94A9
S1130520A00641E061E080E00E94280541E062E02D
S113053080E00E94280541E063E080E00E942805F5
S113054041E064E080E00E94280541E065E080E04D
S11305500E94280541E066E080E00E94280541E011
S113056067E080E00E94280564E170E080E090E0AC
S11305700E94C70683E30E94460282E30E94460269
S113058088E20E9446028CE00E94460286E00E94B5
S1130590460282E00E94460281E00E9446020895DB
S11305A0CF93C82F41E061E080E00E94A70540E0BE
S11305B062E080E00E94A70540E063E080E00E94E2
S11305C0A7058BB39C2F907F8F70892B8BBB41E049
S11305D063E080E00E94A70561E070E080E090E0C5
S11305E00E94C70640E063E080E00E94A70520E186
S11305F0C29FC00111249BB39F70892B8BBB41E028
S113060063E080E00E94A70561E070E080E090E094
S11306100E94C70640E063E080E00E94A70565E011
S113062070E080E090E00E94C706CF9108950F9398
S11306301F93CF938C01C0E003C00E94D002CF5F10
S1130640F801EC0FF11D80818111F7CFCF911F913B
S11306500F910895CF93DF9300D0CDB7DEB790E824
S1130660998390EC9A83E1E0F0E0EC0FFD1FE80F32
S1130670F11D8081860F0E9446020F900F90DF913A
S1130680CF9108951F93CF93DF93CDB7DEB72A9709
S11306900FB6F894DEBF0FBECDBF9923DCF590955D
S11306A08095709561957F4F8F4F9F4F10E013C0D9
S11306B02AE030E040E050E00E946F09E1E0F0E021
S11306C0EC0FFD1FE10FF11D605D6083622F732F3E
S11306D0842F952F1F5F161617061806190644F364
S11306E0E1E0F0E0EC0FFD1FE10FF11D8DE28083EE
S11306F01F5F0DC0E12FF0E0319781E090E08C0F97
S11307009D1FE80FF91F80810E94D0021150111122
S1130710F1CF39C0611571058105910521F480E39C
S11307200E94D00230C01616170618061906ACF03F
S11307302AC02AE030E040E050E00E946F09E1E086
S1130740F0E0EC0FFD1FE10FF11D605D6083622F8F
S1130750732F842F952F1F5F01C010E01616170604
S11307601806190634F30DC0E12FF0E0319781E04B
S113077090E08C0F9D1FE80FF91F80810E94D0022A
S113078011501111F1CF2A960FB6F894DEBF0FBEA7
S1130790CDBFDF91CF911F910895CF93DF93D82FD1
S11307A0C62F41E0682F8C2F0E94280540E06D2F52
S11307B08C2F0E94A70580E0DF91CF91089541E03E
S11307C00E94640680E0089540E00E94640680E090
S11307D008958F929F92AF92BF92CF92DF92EF9241
S11307E0FF920F931F93CF93DF93C82FD62F8A01C5
S11307F04333510514F1BA0162537109072E000CF9
S1130800880B990B0E947608209171003091720038
S113081040917300509174000E9402096B017C01A5
S1130820B801110F880B990B0E947608A701960155
S11308300E9460070E943E0828C0433051051CF402
S11308400E94E40354C062E370E0641B750B072E3E
S1130850000C880B990B0E9476082091710030914E
S1130860720040917300509174000E9402096B0160
S11308707C01B801110F880B990B0E947608A7011F
S113088096010E945F070E943E08072E000C880B09
S1130890990B0E94760820E030E048EC52E40E9474
S11308A0CC0720E030E048EC52E40E9402096B01DE
S11308B07C019B01AC0160E070E088EC92E40E9452
S11308C05F074B015C016D2F8C2F0E94E403C5016F
S11308D0B4010E9445080E94C7066D2F8C2F0E9408
S11308E0DF03C701B6010E9445080E94C70680E0E5
S11308F0DF91CF911F910F91FF90EF90DF90CF90F8
S1130900BF90AF909F908F900895982F862F40E0CE
S1130910692F0E94280580E00895982F862F692F5B
S11309200E94260680E0089541E061E083E00E9491
S1130930280540E062E083E00E9428050E94380711
S113094008950F931F93CF93DF9300D01F92CDB7D9
S1130950DEB78C0119821B821A8241E061E083E0D8
S11309600E94A7056AE070E080E090E00E9403071F
S113097040E061E083E00E94A705AE014F5F5F4F56
S113098062E083E00E94260641E067E081E00E9485
S1130990A70507C0AE014F5F5F4F62E083E00E948E
S11309A0260689818111F6CF0E944B0707C0AE014C
S11309B04F5F5F4F62E083E00E94260689818823AF
S11309C0B1F341E065E081E00E94A70580E090E09A
S11309D00E945C0707C0AE014F5F5F4F62E083E097
S11309E00E94260689818111F6CFCE0102960E94CB
S11309F0560741E066E081E00E94A7056A817B8199
S1130A00660F771F660F771F660F771F80E090E0F1
S1130A100E94740826E933E44BE85CE30E9402096F
S1130A200E943E086F3F710519F014F06FEF70E0FB
S1130A30F801608380E00F900F900F90DF91CF91C9
S1130A401F910F9108950E9449000E94CB00FDCF91
S1130A50442319F04130E9F174C0813099F028F051
S1130A608230E9F0833041F16EC02AB381E090E036
S1130A7002C0880F991F6A95E2F7809582238ABB8A
S1130A8080E0089527B381E090E002C0880F991FA9
S1130A906A95E2F78095822387BB80E0089524B3AA
S1130AA081E090E002C0880F991F6A95E2F7809573
S1130AB0822384BB80E0089521B381E090E002C0EA
S1130AC0880F991F6A95E2F78095822381BB80E0A5
S1130AD00895813091F028F08230D9F0833029F1E3
S1130AE034C02AB381E090E002C0880F991F6A9550
S1130AF0E2F7822B8ABB80E0089527B381E090E07F
S1130B0002C0880F991F6A95E2F7822B87BB80E0A9
S1130B10089524B381E090E002C0880F991F6A957C
S1130B20E2F7822B84BB80E0089521B381E090E05A
S1130B3002C0880F991F6A95E2F7822B81BB80E07F
S1130B40089581E0089581E0089581E008954423A3
S1130B5019F04130E9F174C0813099F028F0823005
S1130B60E9F0833041F16EC02BB381E090E002C024
S1130B70880F991F6A95E2F7809582238BBB80E0EA
S1130B80089528B381E090E002C0880F991F6A9508
S1130B90E2F78095822388BB80E0089525B381E045
S1130BA090E002C0880F991F6A95E2F7809582232E
S1130BB085BB80E0089522B381E090E002C0880FF5
S1130BC0991F6A95E2F78095822382BB80E008959D
S1130BD0813091F028F08230D9F0833029F134C08B
S1130BE02BB381E090E002C0880F991F6A95E2F769
S1130BF0822B8BBB80E0089528B381E090E002C093
S1130C00880F991F6A95E2F7822B88BB80E00895CC
S1130C1025B381E090E002C0880F991F6A95E2F73E
S1130C20822B85BB80E0089522B381E090E002C06E
S1130C30880F991F6A95E2F7822B82BB80E00895A2
S1130C4081E0089581E0089581E00895813099F06C
S1130C5028F08230E9F0833041F134C089B390E068
S1130C6002C0959587956A95E2F7817089BBFA0170
S1130C70808380E0089586B390E002C095958795BF
S1130C806A95E2F7817086BBFA01808380E008955B
S1130C9083B390E002C0959587956A95E2F78170D9
S1130CA083BBFA01808380E0089580B390E002C0A2
S1130CB0959587956A95E2F7817080BBFA018083E8
S1130CC080E0089581E00895613099F028F0623061
S1130CD0E9F0633041F10895411105C09BB380955B
S1130CE089238BBB0895413051F59BB3892B8BBB72
S1130CF00895411105C098B38095892388BB089550
S1130D004130E9F498B3892B88BB0895411105C09B
S1130D1095B38095892385BB0895413081F495B3BB
S1130D20892B85BB0895411105C092B38095892311
S1130D3082BB0895413019F492B3892B82BB089584
S1130D4083B78F7783BF83B78F7B83BF83B7877F57
S1130D5083BF83B78F7E83BF83B78F7D83BF80E0DC
S1130D60089583B7816083BF83B78D7F83BF83B7C3
S1130D70846083BF80E0089583B78E7F83BF83B789
S1130D808D7F83BF83B78B7F83BF80E008950E94EC
S1130D9074082FE632E143E052E40E94CC070E943B
S1130DA045086093E2007093E3008093E40090931D
S1130DB0E50012BE0E94B10640E050E0BA010AC04C
S1130DC008B600FEFDCF88B7816088BF4F5F5F4FD4
S1130DD06F4F7F4F8091E2009091E300A091E40077
S1130DE0B091E500481759076A077B0748F310924A
S1130DF0E2001092E3001092E4001092E5000E94D9
S1130E00BC0680E00895DC01CB01072E7FE0B69597
S1130E10A795979587957A95D1F7702D8093E200E1
S1130E209093E300A093E400B093E50012BE0E9407
S1130E30B10640E050E0BA010AC008B600FEFDCF9A
S1130E4088B7816088BF4F5F5F4F6F4F7F4F80913E
S1130E50E2009091E300A091E400B091E50048170E
S1130E6059076A077B0748F30E94BC0680E008958F
S1130E708FB58E7F8FBD8FB58D7F8FBD8EB5877FEC
S1130E808EBD8EB58F7E8EBD8FB584608FBD8FB5C0
S1130E9088608FBD08958EB581608EBD8EB58260E9
S1130EA08EBD8EB58B7F8EBD80E008952CB53DB58B
S1130EB0FC013183208308959DBD8CBD0895505855
S1130EC0BB27AA270E9477070C94C8080E94BA0877
S1130ED038F00E94C10820F039F49F3F19F426F439
S1130EE00C94B7080EF4E095E7FB0C94B108E92FD5
S1130EF00E94D90858F3BA17620773078407950745
S1130F0020F079F4A6F50C94FB080EF4E0950B2E72
S1130F10BA2FA02D0B01B90190010C01CA01A00147
S1130F201124FF27591B99F0593F50F4503E68F1A2
S1130F301A16F040A22F232F342F4427585FF3CFE3
S1130F40469537952795A795F0405395C9F77EF4B4
S1130F501F16BA0B620B730B840BBAF09150A1F0FD
S1130F60FF0FBB1F661F771F881FC2F70EC0BA0F83
S1130F70621F731F841F48F4879577956795B7950B
S1130F80F7959E3F08F0B0CF9395880F08F0992706
S1130F90EE0F9795879508950E94E0070C94C80872
S1130FA00E94C10858F00E94BA0840F029F45F3F3B
S1130FB029F00C94B10851110C94FC080C94B70856
S1130FC00E94D90868F39923B1F3552391F3951B33
S1130FD0550BBB27AA2762177307840738F09F5F56
S1130FE05F4F220F331F441FAA1FA9F335D00E2EC3
S1130FF03AF0E0E832D091505040E695001CCAF730
S11310002BD0FE2F29D0660F771F881FBB1F2617F2
S113101037074807AB07B0E809F0BB0B802DBF01C9
S1131020FF2793585F4F3AF09E3F510578F00C9498
S1131030B1080C94FC085F3FE4F3983ED4F3869522
S113104077956795B795F7959F5FC9F7880F911DB9
S11310509695879597F90895E1E0660F771F881FA5
S1131060BB1F621773078407BA0720F0621B730B58
S1131070840BBA0BEE1F88F7E09508950E9445088B
S11310806894B1110C94FC0808950E94E10888F05A
S11310909F5798F0B92F9927B751B0F0E1F0660F38
S11310A0771F881F991F1AF0BA95C9F714C0B13079
S11310B091F00E94FB08B1E008950C94FB08672F9F
S11310C0782F8827B85F39F0B93FCCF386957795A8
S11310D06795B395D9F73EF4909580957095619591
S11310E07F4F8F4F9F4F0895E89409C097FB3EF4BC
S11310F090958095709561957F4F8F4F9F4F992361
S1131100A9F0F92F96E9BB279395F69587957795DE
S11311106795B795F111F8CFFAF4BB0F11F460FF9E
S11311201BC06F5F7F4F8F4F9F4F16C0882311F0F6
S113113096E911C0772321F09EE8872F762F05C00A
S1131140662371F096E8862F70E060E02AF09A95A5
S1131150660F771F881FDAF7880F9695879597F99A
S1131160089597F99F6780E870E060E008959FEF25
S113117080EC089500240A9416161706180609062A
S1131180089500240A9412161306140605060895F9
S1131190092E0394000C11F4882352F0BB0F40F481
S11311A0BF2B11F460FF04C06F5F7F4F8F4F9F4FC1
S11311B0089557FD9058440F551F59F05F3F71F043
S11311C04795880F97FB991F61F09F3F79F08795AA
S11311D00895121613061406551FF2CF4695F1DF33
S11311E008C0161617061806991FF1CF86957105C3
S11311F0610508940895E894BB2766277727CB01F7
S113120097F908950E9415090C94C8080E94BA0819
S113121038F00E94C10820F0952311F00C94B10815
S11312200C94B70811240C94FC080E94D90870F39C
S1131230959FC1F3950F50E0551F629FF001729F77
S1131240BB27F00DB11D639FAA27F00DB11DAA1F86
S1131250649F6627B00DA11D661F829F2227B00DD3
S1131260A11D621F739FB00DA11D621F839FA00D5E
S1131270611D221F749F3327A00D611D231F849FAE
S1131280600D211D822F762F6A2F11249F57504005
S11312909AF0F1F088234AF0EE0FFF1FBB1F661F80
S11312A0771F881F91505040A9F79E3F510580F049
S11312B00C94B1080C94FC085F3FE4F3983ED4F31B
S11312C0869577956795B795F795E7959F5FC1F7ED
S11312D0FE2B880F911D9695879597F90895052EF5
S11312E097FB1EF400940E94860957FD07D00E94C4
S11312F08E0907FC03D04EF40C9486095095409552
S1131300309521953F4F4F4F5F4F089590958095AD
S1131310709561957F4F8F4F9F4F0895A1E21A2ECC
S1131320AA1BBB1BFD010DC0AA1FBB1FEE1FFF1F85
S1131330A217B307E407F50720F0A21BB30BE40BD5
S1131340F50B661F771F881F991F1A9469F760951C
S11313507095809590959B01AC01BD01CF010895D6
S1071360F894FFCF2B
S113136450603132333435363738390203040506D4
S113137407CDCCCC3D5072657373203120746F203B
S1131384737461727400536574206465662E2072EC
S11313946F746174696F6E007269676874006C6558
S11313A466742000202020524F424F542049530099
S11313B453544F50504544002053706565643A00BB
S11313C425206469723A004600420052004C002011
S11313D42020446973742E3A002020202020200009
S9030000FC
